# Logon
20150604-10:35:09.163 : 8=FIX.4.2|9=71|35=A|34=16|49=testuser|52=20150604-10:35:09.163|56=testlab|98=0|108=30|10=063|
20150604-10:35:09.167 : 8=FIX.4.2|9=0076|35=A|34=0000020|49=testlab|52=20150604-10:35:08.360|56=testuser|98=0|108=30|10=141|

# New Order
20150604-10:35:09.168 : 8=FIX.4.2|9=0090|35=1|34=0000021|49=testlab|52=20150604-10:35:08.361|56=testuser|112=20150604-10:35:08.361|10=096|
20150604-10:35:09.168 : 8=FIX.4.2|9=85|35=0|34=17|49=testuser|52=20150604-10:35:09.168|56=testlab|112=20150604-10:35:08.361|10=030|

# Replace Order
20150604-10:35:28.246 : 8=FIX.4.2|9=155|35=D|34=18|49=testuser|52=20150604-10:35:28.246|56=testlab|1=a1|11=D_123528006|21=1|38=1|40=2|44=390|54=1|55=48930|59=0|60=20150604-10:35:28|115=c1|116=t1|10=132|
20150604-10:35:28.607 : 8=FIX.4.2|9=0219|35=8|34=0000022|49=testlab|56=testuser|52=20150604-10:35:27.799|6=0.000000|14=0.000000|20=0|31=0|32=0|40=2|54=1|55=48930|59=0|1=a1|11=D_123528006|17=1117901128_52|37=1100000000019044|38=1|39=0|44=390|150=0|151=1|198=33|10=185|


20150604-10:35:58.165 : 8=FIX.4.2|9=59|35=0|34=19|49=testuser|52=20150604-10:35:58.165|56=testlab|10=036|
20150604-10:35:59.488 : 8=FIX.4.2|9=0064|35=0|34=0000023|49=testlab|52=20150604-10:35:58.681|56=testuser|10=110|

# Remove Order
20150604-10:36:39.455 : 8=FIX.4.2|9=151|35=G|34=21|49=testuser|52=20150604-10:36:39.455|56=testlab|11=G_123639007|21=1|38=5|40=2|41=D_123528006|44=395|54=1|55=48930|59=0|60=20150604-10:36:39|10=193|
20150604-10:36:39.782 : 8=FIX.4.2|9=0234|35=8|34=0000025|49=testlab|56=testuser|52=20150604-10:36:38.973|6=0.000000|14=0.000000|20=0|31=0|32=0|40=2|54=1|55=48930|59=0|1=a1|11=G_123639007|17=1117901199_53|37=1100000000019044|38=5|39=5|41=D_123528006|44=395|150=5|151=5|198=34|10=239|

20150604-10:37:09.170 : 8=FIX.4.2|9=59|35=0|34=22|49=testuser|52=20150604-10:37:09.170|56=testlab|10=024|
20150604-10:37:10.502 : 8=FIX.4.2|9=0064|35=0|34=0000026|49=testlab|52=20150604-10:37:09.694|56=testuser|10=115|

# Cancel Order
20150604-10:39:50.918 : 8=FIX.4.2|9=129|35=F|34=30|49=testuser|52=20150604-10:39:50.918|56=testlab|11=F_123950009|38=5|41=G_123639007|54=1|55=48930|60=20150604-10:39:50|10=252|
20150604-10:39:51.243 : 8=FIX.4.2|9=0239|35=8|34=0000033|49=testlab|56=testuser|52=20150604-10:39:50.457|6=0.000000|14=0.000000|20=0|31=0|32=0|40=2|54=1|55=48930|59=0|1=a1|11=F_123950009|17=07:54:46.760000036|37=1100000000019044|38=5|39=4|41=G_123639007|44=395|150=4|151=0|198=35|10=191|

# Logoff
20150604-10:40:16.698 : 8=FIX.4.2|9=59|35=5|34=31|49=testuser|52=20150604-10:40:16.698|56=testlab|10=036|
20150604-10:40:16.698 : 8=FIX.4.2|9=0064|35=5|34=0000034|49=testlab|52=20150604-10:40:15.912|56=testuser|10=103|
